:1000000030C200004BC2000049C2000047C20000DD
:1000100045C2000043C2000041C200003FC20000D0
:100020003DC200003BC200000C9432200C94FE2024
:100030000C94581A33C2000031C200002FC20000D5
:100040002DC200002BC2000029C2000027C2000000
:1000500025C200000C94CF1A21C200001FC200006C
:100060001DC200001BC2000019C2000017C2000020
:1000700015C2000013C2000011C200000FC2000030
:100080000DC200000BC2000009C2000007C2000040
:1000900005C2000003C2000001C20000FFC1000051
:1000A000FDC10000FBC10000F9C10000FF0101011A
:1000B00001010101010101010101010101018DDDC8
:1000C000DDFDFFFFFF7FFFFF7FFFFFFFFFFFFFFF64
:1000D000FFBF7FFFFF77312101E1E1C1E1E1E1F104
:1000E000E1E1F1E161E101E131E131C1E13131E130
:1000F000C1010101016161F161A1E1F181C1F1F190
:1001000041C10101010101010101010101010101DF
:1001100001010101010101010101010101010101CF
:100120000181E1D1D1B1F191010101FFFF00000096
:10013000000000000000000000000000002039ED79
:10014000E7F1F8F9F8F0F1F0F7EFCFFFF7F7FFCFAD
:10015000CFF7720703000000000101B0B1B1E1A0C8
:100160000101C1C1C1C1C1F1F0D1F0D03141414162
:1001700040F0F04040400140C0C1F0F1E1E0E181D9
:100180000080808080F0F08080808000C0E020E0EF
:10019000E0E000000000E0F0F000000000000000DF
:1001A00000038342C2C2C341200000FFFF000000E1
:1001B000000000000080C0A0F0F8E4820001010708
:1001C0001F3FFFF9FEFFFFEFDFBFBFBF3FBF9FCF66
:1001D000E77D0E001DBEFEFCF8E3C343E161713F05
:1001E0001F0400004EFF7B7F1F00000000337B6B6D
:1001F0006B7F3F3B3333003B7B6F6F6F6F6F5D09EE
:1002000000016161793F1F01010101707F1F003F03
:100210007F7F301C0E007F7F7F03070E0E040000DF
:100220000006070506060700000000FFFF8080802B
:10023000A0F8FCFEFFFFFFFFFFFFFFFFBFFEFCF883
:10024000F8F0E0E1E1C3C787E7FFFFE7FFC7E3E3BB
:10025000F1B8A09EBFBFBFBFFFFFFFFFFEFCFCF8D1
:10026000E0808080808080808488888E8A8E828CE6
:10027000908E8E848E8C868C8C8C8E808E8A8080E4
:100280008C848C8C8C8E8C8E8E8C8C908C828E82BE
:100290008C928C8080808080808080808080808034
:1002A0008080808081808080808080FFB100A80075
:1002B000A700E0002A00A60006011901A50000AE73
:1002C00000AF00DA0281FFD9F1DB20A4A62EAF0037
:1002D000A0C0D30000A1C8D30000AED580A81F40A5
:1002E0008D14200014036800610063006B0070002F
:1002F000610064007600320000001A0341006200D1
:10030000640075006C0020005200650068006D00FC
:1003100061006E0000000403090409023B000201B1
:1003200000A0FA09040000010301010009211101E4
:1003300000012244000705810308000109040100AF
:10034000010300000009211101000122B600070588
:1003500082032000011201000200000008EDFE00EF
:100360000001000102000105010902A10185020945
:1003700001A1000509190129081500250195087535
:100380000181020501093009311581257F9502752A
:1003900008810609381581257F95017508810605B4
:1003A0000C0A38021581257F950175088106C0C0A9
:1003B00005010980A101850319012AB7001501264D
:1003C000B700950175108100C0050C0901A10185D8
:1003D0000419012AA002150126A0029501751081B9
:1003E00000C005010906A1018506050719E029E7F6
:1003F000150025019508750181020507190029EFEF
:100400001500250195F075018102050819012905DE
:10041000950575019102950175039101C0050109CA
:1004200006A101050719E029E715002501950875C2
:100430000181029501750881010507190029FF1541
:100440000026FF0095067508810005081901290599
:10045000150025019505750191029501750391011E
:10046000C00011241FBECFEFDAE0DEBFCDBF11E028
:10047000A0E0B1E0E4E2F7E402C005900D92AC3AEE
:10048000B107D9F724E0ACEAB1E001C01D92A03E6B
:10049000B207E1F70E9471100C943E23B1CD811197
:1004A00005C089EA611101C08AEAF9D180E00895A6
:1004B00060E072E08CEA90E00E94261180E00895EE
:1004C000811115C0633098F4433088F470E0FB016B
:1004D000EE0FFF1FE60FF71FE40FF11DEE0FFF1FDA
:1004E000E455FD4F85919591282F822F089521E0A5
:1004F00090E0FBCFE5CF089581E0089581E0089575
:10050000FBCF089581E0089581E00895FDCF08951F
:1005100008950895FDCF089508950895A6E0B0E0E8
:10052000E4E9F2E00C94CE2249835A839E83309111
:10053000B30189819A81311117C03E81311589F04B
:10054000211579F0FFD4182F682F89819A81D4D48E
:1005500069817A81812F0E94BA0D2696E3E00C947E
:10056000EA22DDD4182FF4CFEDD469817A81F3CF5C
:10057000FC01262F408151816281738184819581A4
:10058000CDCFCF93DF93EC0161E0F2DFBE01B6DFA8
:10059000811529F061E0CE01EBDFBE01B1DFDF9113
:1005A000CF9108950F931F93CF93DF93EC0160E0F9
:1005B000DFDF8C01BE01ADDFBE01C801ABDFDF9123
:1005C000CF911F910F9108950F931F93CF93DF93B6
:1005D000EC0161E0CDDF8C01BE0194DF811106C02A
:1005E00080E0DF91CF911F910F910895BE01C80166
:1005F0008DDF8115A9F3BE01C8010E94A8178115DE
:1006000079F3BE01C8010E941F14811549F3BE0190
:10061000C8010E94F613811519F3BE01C8010E949A
:10062000BD0E8115E9F2BE01C8010E94CF0E8115F1
:10063000B9F2BE01C8010E94E90ED3CF21E030E03B
:1006400002C0220F331F8A95E2F7C90190C3CF93EE
:10065000C82F81E090E00C2E02C0880F991F0A94E9
:10066000E2F70E94C10B8C2FE9DFCF91089581E062
:10067000089581E00895FBCF0895CF93C82F26D326
:100680008C2FF7DF8C2FF7DFCF91089581E0F5DF16
:100690000C94F31A80E0F1DF0C94041B3DDF0E9400
:1006A000FE1919D00C94791218D037DF0C94021A65
:1006B00081E008950895CF93DF93D82FF9DFC82FF5
:1006C000811511F08D2FF6DF8C2FDF91CF910895DA
:1006D0000895F1CF089580E0FCCF0E94F617F9CF7E
:1006E000CF930E94F617C82F8091AE018C1771F03E
:1006F000C093AE010E94C31A6093AF017093B00122
:100700008093B1019093B2018C2FE3DFCF910895D4
:10071000ADE0B0E0EEE8F3E00C94CF2248875987D3
:100720006A877B878C879D8791111AD71F8286E005
:10073000FE0138969E012F5F3F4FD90101900D9227
:100740008A95E1F78D8181110CC029813A814B8115
:100750005C816D817E818F814ED62D96E2E00C9476
:10076000EB22CE0101960DDF8111EFCFF6CFFC0118
:100770002481213019F48081918117C40895611575
:1007800021F00E947B150C9430160E94BB15FBCF04
:10079000CF93C82F811581F08450813A78F48C2F43
:1007A0000E94AA18811521F08C2F0E94471963D747
:1007B0008C2F0E9430195FD7CF9108958C2F805EC7
:1007C000883048F481E0C1FD84E0C0FD880FC2FD9F
:1007D0008295A7D6F0CF8C2F855A833030F48C2F9A
:1007E0008452990B0E943618E7CFEC2FE85AEB3170
:1007F00050F4F0E0EE0FFF1FEF5DFE4F808191811E
:100800000E945D18D9CF8C2F8D5C8331A8F661E0F2
:100810008C2FB5DFD1CF811559F1982F9450913A93
:1008200018F40E94471927C7982F905E983050F40B
:10083000982F81E091FD84E090FD880F92FD8295D4
:1008400076D6F1CF982F955A933020F480E090E03F
:100850000C943618982F985A9B3120F480E090E041
:100860000C945D18982F9D5C933110F460E087CF55
:1008700008951F93CF93DF93182FEB0189DF209703
:1008800031F4812FC8DFDF91CF911F9108958FE957
:100890009FE00197F1F700C000002197F0CF60E5DD
:1008A00070E0893311F060E070E0E3CF811511F062
:1008B00038D6E1C60895811511F039D6DCC6089501
:1008C000A0E0B0E0E6E6F4E00C94C9226C01D62F7B
:1008D000C72FFC011581068102950F7017D6E82EEF
:1008E0008115E9F0E12E1115D1F08C2F807F803435
:1008F00061F08D2F805E8830E0F08C2F807E80321A
:1009000021F4D230B0F00115A1F08091C20282FF33
:1009100010C082E0D4D6FAD591E08927E82EEC2FDA
:10092000E295EF70C03C78F5F0E0E05CFC4D0C9493
:10093000B922E12CF4CF0C2F0F70C03110F00295CA
:10094000007F111581F0011549F08D2F805E8830F0
:1009500010F0D11105C0802FE4D58DD68D2F40C069
:10096000802FF0D5FACF8D2F56DF011561F08D2F36
:10097000805E883010F0D11103C0802FD8D502C01E
:10098000802FE6D578D6E11409F4B3C0BBD580FD3D
:10099000B0C0F6011582B0D51AD2C60168D1ACD567
:1009A00024D2A7C08C2F8F70F82EC07FC03219F0D0
:1009B000F29480EFF822D13038F079F1111509F472
:1009C00038C00115C9F0CACF8091C20282FD10C0A3
:1009D000111541F0F11419F08F2DA3D54CD680E0FC
:1009E000D7DED1CF80E017DFF11469F28F2DC6CFAB
:1009F000111551F0013018F48F2D58DFC4CF09F0D4
:100A0000C2CF8F2DC1D5BFCF0111BDCF8F2D53DFE9
:100A10008F2DC5D58F2DAAD5B6CF111521F0063053
:100A200008F0B1CFE9CF053008F0ADCF8F2D43DF0F
:100A3000AACF0115D9F3D93349F48FEF97EE23E00C
:100A4000815090402040E1F700C000008D2FE3DE90
:100A50009ACF8C2F869586958370813060F009F04F
:100A600092CF8D2F9C2F9370111102C080E090E0E7
:100A70000E945D1888CF8D2F9C2F9370111102C09A
:100A800080E090E00E9436187ECF612F8D2F77DEB8
:100A90007ACF8C2F8370C1F5111128C04D2F42954C
:100AA00046954770440F440F2D2F2F7030E0042ED1
:100AB00002C0220F331F0A94E2F780E090E0D4FFD7
:100AC00009C08FE090E002C0880F991F4A95E2F7B5
:100AD00080959095C695C695C370822B932BC23096
:100AE00079F0C33079F0C13049F04AD10E94F6174D
:100AF000F0DDCDB7DEB7E8E00C94E5223AD1F6CFD1
:100B000046D1F4CF34D1F2CF111559F1C0FFEECF59
:100B10004D2F429546954770440F440F2D2F2F704F
:100B200030E0042E02C0220F331F0A94E2F780E067
:100B300090E0D4FF09C08FE090E002C0880F991FB9
:100B40004A95E2F780959095C695C695C370822B1D
:100B5000932BC23061F0C33061F0C13031F06AD103
:100B6000C5CF823008F4C2CFD3CF5DD1BFCF69D11A
:100B7000BDCF1AD1BBCFCF70111529F08C2F27D143
:100B80008D2F94DEB3CF8D2F96DE8C2F2ED1AECF4E
:100B9000D23F31F168F4D03FC1F0D13F89F0111557
:100BA00009F43EC0011509F438C08D2FF1DD9ECF48
:100BB000D33FE1F0D43F99F78091C20282FD1EC07D
:100BC0008C2F8F71111511F30FC0111539F00530ED
:100BD00008F08CCF8C2F8F7118D188CF0630F8CFCA
:100BE0008C2F8F711111D2CFF2D080CF111521F03F
:100BF0008C2F8F71E3D07ACFDED078CF111529F00A
:100C000063E08C2F8F7144D571CF81E058D50230CD
:100C100008F46CCF82E053D569CF8C2F8F71E4CF6D
:100C2000011571F0D93349F48FEF97EE23E081502D
:100C300090402040E1F700C000008D2FECDD56CF42
:100C40008C2F8F71A3CF0F931F93CF93DF93EC0162
:100C5000688179818D81B2D18C01FAD087D0B801B9
:100C6000CE012EDEDF91CF911F910F910895CF938A
:100C7000DF93EC018C81811581F0CE01A5DC81111F
:100C80000FC044D4811549F08D81811531F08091D8
:100C9000C20282FF02C082E012D5DF91CF91089597
:100CA000CE01D1DFCE017EDCF8CF80E090E00E9463
:100CB000361880E090E00E945D1852D4DCD40E9487
:100CC00049160C9430160E945E19EFCF38D4FBCF32
:100CD000282F92959F70963099F060F4925F9F70E4
:100CE000923030F4203FB1F038F481E0283E38F003
:100CF00080E008959A5FF3CF81E0243FC9F708951B
:100D000091E0813F09F090E081E0283E08F080E02A
:100D1000892B089581E00895FC012481211521F09B
:100D20008081918142D1D4CF80E00895A6E0B0E0E7
:100D3000ECE9F6E00C94CF222696E2E00C94EB224C
:100D4000A7E0B0E0E6EAF6E00C94CF222796E2E0D6
:100D50000C94EB220895FECF0895FDCF0895FADF9D
:100D6000FCDF8093BE019093BF0108950895F7CFF3
:100D700008952091BE013091BF01822B932BEFCFBC
:100D80002091BE013091BF0182239323E8CF2091AF
:100D9000BE013091BF0182279327E1CFDBCF0895B9
:100DA000FDCF0895D7CF0895FDDFFADF8093BC0112
:100DB0009093BD01089580E090E0F6CF21E030E00F
:100DC00002C0220F331F8A95E2F7C901EDCF21E05F
:100DD00030E002C0220F331F8A95E2F78091BC01F8
:100DE0009091BD01822B932BDFCF21E030E002C038
:100DF000220F331F8A95E2F7209530958091BC0130
:100E00009091BD0182239323CFCF21E030E002C037
:100E1000220F331F8A95E2F78091BC019091BD01AA
:100E200082279327C1CF2091BC013091BD01822B35
:100E3000932BBACF2091BC013091BD018223932323
:100E4000B3CF2091BC013091BD0182279327ACCF55
:100E50000895CF93C1E061FDC4E060FDCC0F62FD59
:100E6000C29593E0769567959A95E1F7660F771F9F
:100E7000660F771F460F571FFA0140E050E090E0E1
:100E80006191DF019C01042E02C0369527950A94DA
:100E9000E2F72695220B26272C2326272E934F5F39
:100EA0005F4F4430510561F7CF910895A82FA77087
:100EB00023E0969587952A95E1F7880F991F880F6B
:100EC000991F680F791FFB0140E050E080E02191FD
:100ED00030E00A2E02C0369527950A94E2F7217079
:100EE000042E01C0220F0A94EAF7822B4F5F5F4F56
:100EF0004430510561F70895E62F933078F483303C
:100F000068F4292F30E0B901660F771F620F731F55
:100F1000680F711D44EB51E08E2F9BCF08959330E5
:100F200078F4833068F4292F30E0A901440F551F6D
:100F3000240F351F64EB71E0820F932F911DB6CF04
:100F400080E00895CF92DF92FF920F931F93CF938B
:100F5000DF936C010091BC011091BD018091BE0135
:100F60009091BF01082B192BCFE0D0E081E090E0F9
:100F70000C2E02C0880F991F0A94E2F78023912358
:100F8000892B61F4219790F7F12C8F2DDF91CF9170
:100F90001F910F91FF90DF90CF900895FC2EB60126
:100FA0008C2FF3D5019771F3F0CFCF93DF93EC0142
:100FB000C9DFBE01EAD5DF91CF9108951F93CF938A
:100FC000DF93EB019091B301911531F0CB01EDDF8F
:100FD000DF91CF911F910895811551F0CB01B2DFC0
:100FE000182F682FCE0188DFBE01812FCED5F0CF1C
:100FF000CB0195DF182FF8CF0F931F930091C001FD
:101000008091C101801303C01F910F91089587E063
:10101000089FF0011124EE53FE4F2081318142815F
:1010200053816481758186818BDE0F5F1F4F07704E
:10103000E7CF2091FA013091FB014091FC015091E2
:10104000FD016091FE017091FF018091000278CE58
:1010500080910002803170F48091FF01811551F080
:10106000E091C0012091C1013091FB014091FA0152
:101070002E1301C00895BF0187E0E89FF0011124FD
:10108000DF01AE53BE4F14968C911497811549F130
:1010900011968C911197831324C08C91841321C0D5
:1010A00015968C91159781111CC012968D919D916A
:1010B000A091FC01B091FD018A1B9B0B883C91051E
:1010C00080F4809100028F70806180930002E85369
:1010D000FE4F80818F70806180838AEF91E0C7DD51
:1010E0008BCF6F5F7F4FFB01E770C2CFE091C001F4
:1010F0009091C101E91302C080E008959F0157E07B
:10110000E59FF0011124EE53FE4F5181561306C0A6
:101110005081581303C05581541305C02F5F3F4FB2
:10112000F901E770E7CF81E008958F929F92AF9227
:10113000BF92DF92EF92FF920F931F93CF93DF93B3
:10114000CDB7DEB72D970FB6F894DEBF0FBECDBF7B
:101150008C0186E0F801DE01189601900D928A95C7
:10116000E1F7F801F58084819AEF892E91E0992EBC
:101170009091FE01911117C0811509F4EFC0F1148F
:1011800009F42EC1C801C8DD811509F429C187E021
:10119000F801D40101900D928A95E1F7C401E7DAD4
:1011A00057DF47DFDBC0E080A280B380D090FF0133
:1011B0002091FC013091FD01A501421B530BD1147C
:1011C00009F4CFC0483C510508F09EC0811509F4D0
:1011D000C5C09091FB01918080910002803108F0A0
:1011E00065C0991226C09091FA019E1122C0F1109B
:1011F00057C08F708061809300021BDF8AEF91E0FF
:1012000036DD80910002F8018683F12C8F2D2D961A
:101210000FB6F894DEBF0FBECDBFDF91CF911F9107
:101220000F91FF90EF90DF90BF90AF909F908F90C5
:101230000895F11035C040E0692D8E2D57DF40E054
:10124000692D8E2D53DFF82E8111DFCF888599858A
:10125000ACDE292F22952F70903450F49F702230ED
:1012600078F0911591F0F8019681903170F4CECF1D
:101270002A5F2F70223070F0C801F9DCFD2CC6CF38
:10128000911519F0811509F4C1CF805E883008F4FA
:10129000BDCFF2CF803F08F4B9CF815F8330F7CF65
:1012A00080910002816080930002AFCF991207C045
:1012B0009091FA019E1103C0F11409F473C0C801A2
:1012C0002BDD811509F48CC0F11409F489C08091DB
:1012D0000002803280F02091FA013091FB012983D5
:1012E0003A83AB82BC829091FE019D831E828F83E4
:1012F000CE010196BCDC87E0F801AAEFB1E00190D5
:101300000D928A95E1F74CCF90910002903188F4CC
:10131000488559856A857B858C859D8507DD8AEFA3
:1013200091E0A5DCF40187E011928A95E9F781DE6E
:101330006CCF811599F02091FB0181812813BFCFDB
:101340008091FA018E11BBCFF110B9CF9683C801FD
:101350008EDCF40187E011928A95E9F7FF24F3947B
:1013600055CF483C510508F03EC08115B9F3F11442
:10137000B9F19091FB018181981329C08091FA0104
:101380008E1125C08091000280FD18C08031B0F020
:101390008683807F803F39F08681982F907F905F91
:1013A0008F70892B8683C80162DC87E0F801AAEF81
:1013B000B1E001900D928A95E1F7F3CE87E0F80154
:1013C000AAEFB1E001900D928A95E1F7C7CFC8016D
:1013D000A3DC811190CF8091000281608093000294
:1013E000C80145DCBBCF488559856A857B858C85DE
:1013F0009D859CDC97CFAEE0B0E0E1E0FAE00C9494
:10140000CE22288739874A875B876C877D878E87BE
:10141000CE0108968ADE6C85811599F0611539F048
:10142000288539854A855B857D858E8589DC809117
:10143000C0019091C10189133DC02E96E3E00C9448
:10144000EA2287E09E01285F3F4FF90127503109CA
:10145000D90101900D928A95E1F7611541F3A091B0
:10146000C1018A2F90E08395877090E0AC012091B4
:10147000C0012417150691F097E09A9FD00111241E
:10148000AE53BE4F9E012F5F3F4FF90101900D9269
:101490009A95E1F74093C101AFDDC9CF17DC1092F7
:1014A000C1011092C001EAEFF1E087E011928A9544
:1014B000E9F7BDCF17E0189FC00111248E539E4F4E
:1014C00034DE811509F4B9CFE091C0011E9FF0010F
:1014D0001124EE53FE4F208131814281538164817A
:1014E000758186812DDC8091C0019091C1010196AA
:1014F00087708093C0019BCF809129028695869545
:101500008695089580912902877008959091290207
:10151000977081E0911101C080E00895809155029B
:10152000089590915502982B9093550208958095B7
:10153000982F809155028923809355020895109227
:101540005502089590915402982B90935402089557
:101550008095982F80915402892380935402089596
:101560001092540208950895FECF089590912A0292
:10157000292F282329F08095892380932A02F4CFEC
:1015800008950895FECF089590912B02292F2823C6
:10159000281721F0982B90932B02F4CF0895909167
:1015A0002B02292F282329F08095892380932B0251
:1015B000E9CF089580912B02811521F010922B0222
:1015C00080E0E0CF0895CF93C091550280915402FE
:1015D000C82B80912B02811529F0C82B0E948418FA
:1015E0008111E8DF8C2FCF910895CF93DF93C091C5
:1015F0000201D0910301E7DF8883C0910201D091FD
:10160000030148E050E061E272E0CE010E94F62260
:10161000892B59F088E0FE01A1E2B2E001900D9221
:101620008A95E1F7CE010E940518DF91CF910895C8
:10163000CF93DF93C0910001D0910101C4DF898372
:10164000C0910001D091010140E250E061E072E000
:10165000CE010E94F622892B59F080E2FE01A1E022
:10166000B2E001900D928A95E1F7CE010E94121826
:10167000DF91CF9108950E94EF17811529F0809195
:10168000C10287FF01C0D4CFB0CF0895FECF089527
:101690009091C20292FF0EC0982F990F990F990F47
:1016A000962B9093290293DB80912902869586954B
:1016B0008695ECCF8CCB1092290280E0E7CF9091F9
:1016C00029028095892380932902282F277059F4B5
:1016D000891749F09091C20292FF05C086958695C0
:1016E000869583DBE8CF08959091C20292FB222772
:1016F00020F9281749F080FB92F99093C20281ECFF
:1017000092E043D082E0DBCF08958091C2020024B2
:1017100082FF0394802DE8CF81E0E6CF80E0E4CF24
:1017200080E090E0BC01BCC380E090E0BC01B2D39B
:10173000F7CFA3E0B0E0EFE9FBE00C94CF2263D356
:101740006ED31B82CE01039681D381E090E080931B
:10175000BE011092BF0186D3198284E18A83CE0133
:10176000019691D3E1DF2396E2E00C94EB22E1CFE6
:1017700008955BC3089548C308955DC308956CC37D
:10178000089570C3089573C308957DC308958EC3EB
:101790000895A6E0B0E0EFECFBE00C94CD220E94AF
:1017A000B71A8C01809156029091570280179107C9
:1017B00079F019821A820E94B71ABC0149815A81B4
:1017C00080E090E00E948803009356021093570235
:1017D0002696E4E00C94E9220E94C31A609360020A
:1017E00070936102809362029093630260935C0243
:1017F00070935D0280935E0290935F0208950E9451
:10180000C31A6093600270936102809362029093A6
:101810006302609358027093590280935A02909326
:101820005B02089508950895FDCF08950895FEDFA1
:10183000FBCF0895FECF08950895FEDFFBCF8BEB1D
:101840009EE060D4F0DFF3CF81E0089581E0089559
:10185000FBCF0895089508950895FCDFFCDFFCCFC9
:101860008ADF811101C083DF84E692E086DF81ECAC
:1018700092E089DF84DF7BDA8091BC019091BD0129
:101880008FCA0E94AE1A7BD6A7D3EADF0E94ED175B
:101890000E94680380E080D4D0CFA6E0B0E0E3E50A
:1018A000FCE00C94C522D2DFD82E81110CC071DF70
:1018B000D12C0E94EE17D2D6811509F45BC09FDFB0
:1018C00037D603D55AC097D38EEBA82E82E0B82E18
:1018D000750110E0F7010081812FF3D21F5F1330F3
:1018E00009F445C09FEFE91AF90A081799F38091A6
:1018F000640281FDECD2ACDF882E10E0812FE1D2B2
:10190000F82EF50181915F01F81661F18F25C82E3F
:1019100000E0EE24E3948C2D8E21F1F09924939431
:101920008F2D8E2109F4912C811489F0602F812F45
:101930000E94241A81110BC009831A830E94B71ACE
:10194000BC0149815A8181E0992D0E948803492D6B
:10195000602F812F0E94381A0F5FEE0C0330D9F6EA
:10196000F501F2921F5F133049F636DFA2CF08135C
:10197000BECF9DCFDDD5D110A4CF0E946A160E94A4
:1019800070032696ECE00C94E1220F931F93CF9303
:10199000DF93FDD0EC01D23508F050C0D03508F00F
:1019A000C8C0C03ED10530F5CD3CD10508F09DC082
:1019B000C83AD10578F4C53AD10508F093C0C130D2
:1019C000D105B1F1CE010497813A910588F1C0E0CB
:1019D000D0E02EC0CE01885A91094B97C0F7C85A63
:1019E000D0E0CC0FDD1FC95ADE4F0990D881C02D41
:1019F000D4641EC0D034A8F4D03208F0ADC0C83EC4
:101A0000D105B0F0CE0191509F3108F78D2F62D1F2
:101A1000082F8C2F90E0BBD0D02FDF71C82FD92B8F
:101A200007C08C2F90E0B3D0DF70C82FD92BD06ABD
:101A3000CE01DF91CF911F910F910895C03882E5BB
:101A4000D807B8F5C03682E5D80708F056C0C034CC
:101A500082E5D807C8F4C03282E5D80708F047C04D
:101A60008C2F8695869520E2829FC0011124C37039
:101A700021E030E002C0220F331FCA95E2F7E901EE
:101A8000C82BD92BDD68D4CF8C2F8695869587708F
:101A900020E2829FC0011124C37021E030E002C027
:101AA000220F331FCA95E2F7E901C82BD92BDC6856
:101AB000BFCFC03C82E5D80750F48C2F8F71C03A5D
:101AC000D24580F5982F84EF906AEC01B1CFCE011A
:101AD000805C9245809708F07ACFDC2FDF71C0EFF1
:101AE000D06AA6CFA497D064A3CFD065A1CF8C2F06
:101AF0008F71D82FC1EFD06A9BCF8C2F869586959A
:101B0000877020E2829FC0011124C37021E030E081
:101B100002C0220F331FCA95E2F7E901C82BD92B67
:101B2000DA6886CFD7D0982F80E09F71EC01D06221
:101B30007FCF8C2F8F71CED053E0CC0FDD1F5A9505
:101B4000E1F7DF70282F84FF04C090E1899F9001A6
:101B50001124C22FD0696CCF8D2F8F71BBD0082F6D
:101B60008C2F90E014D0302F3F71282F392B30620A
:101B7000E9015ECF462F733028F4633018F4672FE5
:101B80000C947A0280E090E00895F4DFFECE803E6F
:101B90009105D1F1C8F48133910509F481C048F46D
:101BA0008932910509F471C08A32910509F47FC028
:101BB000089589339105E1F082389105C9F08533A4
:101BC000910509F45DC00895843E9105D1F148F472
:101BD000823E910531F1833E910541F181EE90E025
:101BE0000895863E9105C1F1873E9105F1F1089572
:101BF0002091C102237009F064C02091C20223FF2A
:101C000014C089E290E008952091C10220FD45C0F2
:101C10003091C20230FF09C024FD24C083EE90E061
:101C200008952091C10222FDF7CF08952091C102AD
:101C300022FD44C03091C20230FD43C024FFF5CFE5
:101C400011C02091C20221FFF0CF8091C10284FD1A
:101C500009C087EE90E008952091C10223FFE5CFEF
:101C600024FFF7CF80E090E008952091C10223FD8A
:101C70002BC03091C20231FFE1CF84EE90E0089595
:101C80002091C10225FFD1CFBCCF2091C10225FDFB
:101C90001EC02091C20223FFC8CF89E390E00895BF
:101CA0002091C10226FFC1CF8AE290E008952091E1
:101CB000C10226FFBACF81E390E0089582EE90E062
:101CC000089580EE90E0089586EE90E0089585E313
:101CD00090E008959091C10292FF10C041E0282F3A
:101CE0002471243009F040E031E0282F2871283099
:101CF00009F030E0431711F02CE0822793FF10C069
:101D000041E0282F2471243109F040E031E0282FF0
:101D10002871283109F030E0431711F02CE08227B8
:101D20003091C20230FF10C051E0282F21712130C4
:101D300009F050E041E0282F2871283009F040E0F8
:101D4000541711F029E0822731FF10C041E0282FFD
:101D50002171213109F040E031E0282F287128312C
:101D600009F030E0431711F029E0822794FF02C008
:101D700083FD877E089580E00895CF939C01205EC7
:101D80003245C1E02032310538F4FB01C581C11173
:101D900003C08F710E9427038C2FCF9108959C015F
:101DA000FB018581811599F02B359CE7390769F096
:101DB0002C359CE7390721F02A353C4721F008955E
:101DC000A4DC80E00895A8DCFCCFA8DCFACF81E099
:101DD00008959C01FB018581811599F021309CE7D4
:101DE000390761F023309CE7390739F021153C476A
:101DF00049F40E94460380E00895BBDC0E944A0338
:101E0000FACF81E00895089580E090E00E940B23CE
:101E10009C0181E0233E3E4F09F080E0089563EE8F
:101E20007EEF80E090E00C942A236FEF7FEF80E05C
:101E300090E00C942A23CF93DF93EC0182E090E0B2
:101E40000E9403238883DF91CF910895FC01608174
:101E500082E090E00C94102383E090E00E94032342
:101E600090E00895682F83E090E00C941023CF93C6
:101E7000DF93EC0184E090E00E940B238883998338
:101E8000DF91CF910895FC016081718184E090E041
:101E90000C942A23AB01BC018FE090E00C94222328
:101EA000AB01BC0183E190E00C942223682F8EE00B
:101EB00090E00C9410230895FECF08950895FECF6E
:101EC0000895E82FF0E0EA53FD4F808108950895CA
:101ED00080EA8A95F1F7089500C00895F9CF089532
:101EE000F894E82FE295EF70F0E041A18F7021E0C7
:101EF00001C0220F8A95EAF7922F9095942391A31F
:101F000092A1822F892B82A37894089581E3E8DF40
:101F100083E3E6DF82E3E4DF84EFE2DF85EFE0DF07
:101F200086EFDECFA0E0B0E0E8E9FFE00C94C92244
:101F30006C01E62EC62FD0E08E0100571E4FF8012F
:101F400080818F3F09F441C0F894E82FE295EF704B
:101F5000F0E091A18F7021E001C0220F8A95EAF78D
:101F6000892F822B81A382A12095282322A37894F4
:101F7000B3DFADE8B1E031E0F12C2D912F3F79F0E6
:101F8000E22FE295EF70E05EF0E0808190E02F704C
:101F900002C0959587952A95E2F780FF1BC080E0E7
:101FA000F82A330F81E0A039B80739F7F8018081AA
:101FB0008F3F09F095DF61E0F11001C060E08E2DE8
:101FC0008DDFF601EC0FFD1FF082CDB7DEB7E8E044
:101FD0000C94E522832FE4CF99DFE6ECF2E083E076
:101FE00011928A95E9F7E3ECF2E083E011928A9589
:101FF000E9F73AD061CFA3E0B0E0E1E0F0E10C9482
:10200000CC22FE013196DF0183E01D928A95E9F72B
:1020100010E00E2FFF2E612F802F9F2D83DF1F5F7B
:102020001330C9F743E050E0602F7F2D83EC92E03E
:102030000E94F62241E0892B69F440E066EC72E0F0
:1020400083EC92E012D0182F3ADF812F2396E5E03F
:102050000C94E82289819A81AB818093C30290938A
:10206000C402A093C502EACF0895EF92FF920F93A6
:102070001F93CF93DF938C017B01C42F411579F01F
:1020800081E0809367020E94B71A80936502909363
:10209000660280E0CDB7DEB7E6E00C94E722D0918F
:1020A0006702D115B1F380916502909166020E949A
:1020B000481A059770F343E050E0B801C7010E9449
:1020C000F622892B41F083E0F801D70101900D92AF
:1020D0008A95E1F7CD2F109267028C2FDBCFDDCBF5
:1020E00008950E94511A0E948B1DA9DB0E94A31D16
:1020F000C8DB0E94AC1D0E94AF1DF1DF0E94C51D10
:10210000ACDBF9CF8093AC019093AD010895AB01A6
:1021100024E630E0BC0188E70E948D1B9C0181E031
:10212000232B09F080E00895AB0124E630E0BC01E8
:1021300088E70E94D51B9C0181E0232B09F080E0F9
:1021400008950F931F939B0104E610E0AC0160E437
:1021500088E70E94191C9C0181E0232B09F080E094
:102160001F910F9108950C945C1B08950895FECF64
:102170000895E9ECF2E0DF0180E092E01D92019722
:10218000E9F7E093CD04F093CE048FEF9FEF8093B7
:102190008D0290938E020895CF93E8DFE8DF90E2FE
:1021A00080FF90E88093890290938802DCDF6BE0E7
:1021B00070E089ED92E0B8DF811104C0C0E08C2F9F
:1021C000CF9108958091890265E070E081FD26C07D
:1021D00084ED92E0A9DF811589F36DE070E082EC77
:1021E00092E0A2DFC82F811549F30E94C31ADC01D7
:1021F000CB0180549B42AE4FBF4F8093C904909354
:10220000CA04A093CB04B093CC04B3DF81E08093E5
:102210008C0280938B0210928A02D1CF8FEC92E0D5
:10222000D9CF2091880236E0839FC0011124269FD8
:10223000800D911D1124923014F080E090E08753BE
:102240009D4F8093CD049093CE0408950F931F93D8
:10225000CF93DF93A091CD04B091CE049D01295C72
:102260003240620F731F613042E0740710F060E08B
:1022700072E040918D0250918E02FC0101E010E06D
:102280002617370748F040938D0250938E02DF9156
:10229000CF911F910F91089584919D91981789F086
:1022A000ED018A93C901C5E096958795CA95E1F736
:1022B000E80102C0CC0FDD1F8A95E2F7CE014C2B5E
:1022C000592B2F5F3F4F3196DBCFCF93C0918C02BC
:1022D000C11105C0C0918B028C2FCF9108950E942F
:1022E000C31ADC01CB0180549B42AE4FBF4F809399
:1022F000C9049093CA04A093CB04B093CC048091FA
:102300008B028111E9CF62E070E080EC92E00CDF9B
:10231000811501F381E080938B02DECF2F923F92F3
:102320005F926F927F928F929F92AF92BF92CF9265
:10233000DF92EF92FF920F931F93CF93DF93582E6C
:1023400080918D0290918E02892BC1F080918C0238
:102350008115A1F080918A02811110C0B6DF00E0E2
:1023600010E03801639420918D0230918E02211586
:10237000310521F00115A9F0511013C0DF91CF9163
:102380001F910F91FF90EF90DF90CF90BF90AF9093
:102390009F908F907F906F905F903F902F900895C7
:1023A0001F5F812F90E04301012E02C0880C991C11
:1023B0000A94E2F7A40142235323452B89F3209189
:1023C000890220FD3BC09695879596958795482F65
:1023D000282F912F9295990F9076392F315E842F67
:1023E00090930601809309013093070120930A011D
:1023F00067E070E084E091E08ADE811509F4BECFE9
:1024000020E2129FC00111242091890220FD1FC0EB
:1024100060E270E087539D4F94DE811509F4AECFE2
:102420000F5F8094909480918D0290918E0288210C
:10243000992180938D0290938E0295CF912F990FC1
:10244000990F990F392F395F80E023E0C9CFE8E673
:10245000F2E020E211922A95E9F7A7E9B1E063E9F9
:1024600071E0ED91EB012991BE01422F480F592FE8
:10247000511D1A01F0E0E859FD4F20E030E047E03F
:10248000B42EB21AD62C022E01C0DD0C0A94EAF743
:10249000E101C753DD4FE12CF990FD204B2D4E1982
:1024A000477050E0AF2C042E01C0AA0C0A94EAF742
:1024B000519541955109477001C0F6944A95EAF744
:1024C000FA2840814F294083E3944E2D483021F76C
:1024D0002F5F3F4F31962830310589F62BE931E0E7
:1024E0002A173B0709F0BDCF60E270E088E692E072
:1024F00093CFCF93C0918C0280918B02C11106C003
:1025000091E08927C82F8C2FCF9108958115D9F399
:1025100062E070E08EEB92E007DE811103C0C091B3
:102520008B02F1CF10928B02EECF0C9458020895DB
:1025300080918C02811501F160E080E072DEF5DFB0
:1025400080E0ECDE80918B028115B1F00E94C31A0D
:102550002091C9043091CA044091CB045091CC041D
:10256000DC01CB01821B930BA40BB50B8F3F9F4F5C
:10257000AF4FBF4708F4BDCF089566C90895E0E99D
:10258000F2E088E011928A95E9F7DFC0FC01228130
:1025900030E02395237030E0938181E09217130699
:1025A00009F080E008950F931F93CF93DF93EC0120
:1025B000162F042FEBDF811114C08A81FE01E80F72
:1025C000F11D912F00FB97F994838F5F83708A83AD
:1025D00088818F5F888381E0DF91CF911F910F9178
:1025E000089580E0F9CFFC01A38182818A17B1F0C0
:1025F000AE0FBF2FB11D14968C9187FB992790F9D0
:102600008F77DB018C93DA019C9383818F5F8370DA
:10261000838381818F5F818381E0089580E00895C5
:10262000462F682F80E992E0BECFAB01BC0180E964
:1026300092E0D9CFCF93DF93D62F0E944F02C82FBD
:10264000811541F06AE070E089EAD11101C08AEA9F
:102650000E9439048C2FDF91CF910895A2E0B0E061
:10266000E4E3F3E10C94CD2280918F02811551F0C7
:1026700010928F0280919202809393028091900237
:10268000809391029CD079DF182F811569F010E0BA
:1026900004C06981182F8A81CDDFCE010196BC016B
:1026A0000196C3DF8111F5CF812F2296E4E00C94CF
:1026B000E9228FE891E00197F1F700C0000008954A
:1026C00024B16C5C6F7081E001C0880F6A95EAF7F5
:1026D000982F9095922394B995B1892B85B9089537
:1026E00083B190E06C5C6F7002C0959587956A9598
:1026F000E2F7817008950895CF93DF93C0E0809151
:102700009802C81750F0D5DFC0E080919802C81732
:1027100060F0F1DFDF91CF91089560E08C2FD0DF82
:1027200061E08C2FCDDFCF5FEACF60E08C2FD8DF68
:10273000D82F61E08C2FD4DFEC2FF0E0E656FD4F70
:10274000880F8D2B8083CF5FE0CF81E0809398024C
:10275000D3CF1F93CF93DF93182F440F642BC82F31
:10276000D0E0DE01A656BD4FEC918E2F8370681726
:1027700011F1EE0FEE0FE62BEC93EF70F0E0E55663
:10278000FE4FC756DD4F80819881890F8883843042
:102790001CF060E0812F44DF88818D3F1CF461E0F4
:1027A000812F3EDF8881982F990F990B64E070E0AC
:1027B0000E94A6228883DF91CF911F910895CF9325
:1027C000DF93C0E080919802C81718F0DF91CF9195
:1027D000089561E08C2F84DFD82F60E08C2F80DF9C
:1027E0004D2F682F8C2FB5DFCF5FECCFCF93DF93CA
:1027F000EB0186319C4709F50E948E0A9D81911557
:1028000099F08A7A91E0811101C090E090939B0247
:10281000811541F085E324D50E943B0B80E0DF91D8
:10282000CF91089589E2F7CF80919B02811519F02D
:1028300085E32DD5F1CF89E2FCCF81E0F0CFCF93B6
:10284000DF93EC01FB018581811509F4CBC09E016A
:1028500030572332310508F0ABC081EC92E00E9482
:10286000C30BFE01E150F047E232F10520F4E45BD6
:10287000FC4D0C94B9228091C10281608093C10209
:1028800090C08091C20288608093C2028AC0809109
:10289000C1028260F3CF8091C1028460EFCF80914A
:1028A000C1028860EBCF8091C2028160EDCF809140
:1028B000C2028260E9CF8091C1028061DFCF809146
:1028C000C1028062DBCF8091C1028064D7CF0E94B9
:1028D00066068091C1028068D1CF8091C1028C6070
:1028E000CDCF8091C2028360CFCF8091C1028E7F15
:1028F000C5CF8091C202877FC7CF8091C1028D7FF3
:10290000BDCF8091C1028B7FB9CF8091C102877FFB
:10291000B5CF8091C2028E7FB7CF8091C2028D7FEA
:10292000B3CF8091C1028F7EA9CF8091C1028F7DEC
:10293000A5CF8091C1028F7BA1CF0E9466068091B6
:10294000C1028F779BCF8091C102837F97CF809107
:10295000C2028C7F99CF9091C102892F8B7F92FF09
:102960008460877F92FF886089CF8091C202982F10
:10297000909590FB80F990FB81F986CF9091C102F0
:10298000892F8F7B96FF806479CF0E946606909195
:10299000C102892F97FB87F9805870CF81E00E9490
:1029A000C70B81EC92E00E94C50B0E94660680E096
:1029B000DF91CF91089580E0F2CF9091C102892FED
:1029C0008F7E94FF80615ACF9091C102892F8E7FB4
:1029D00090FF816053CF9091C202892F877F93FF30
:1029E000886052CF81E0E4CF382F25EB3203C0015D
:1029F000112497FF04C080589109892F08958058A9
:102A00009F4FFBCF8091A20280FF0DC0609110010B
:102A100070E0660F771F6038710588F561157105E4
:102A200081F1862F089581FF07C06091100184E035
:102A3000689FB0011124EFCF82FF04C060911001A4
:102A400088E0F6CF9091A1029115B9F060910F0145
:102A500080911001961728F098E0899FB001112409
:102A6000DACF899FC001112423E0880F991F2A958E
:102A7000E1F770E00E94A622CECF68E0D2CF8FE7C8
:102A8000089581E008958091A20280FF0CC06091BA
:102A90000C0170E0759567957595679561157105E1
:102AA00041F1862F089581FF06C060910C0170E00E
:102AB00075956795F3CF60910C0182FD0BC09091E5
:102AC000A0029115A1F060910B0180910C01961765
:102AD00038F0682F70E06038710500F38FE70895D3
:102AE000899FC001112470E00E94A622F4CF61E00A
:102AF000D8CF81E00895E82FED5CE33198F5F0E060
:102B0000E259FC4D0C94B9227DDF81958093A60299
:102B1000089578DFFBCF76DF81958093A502089535
:102B200071DFFBCFB0DF8093A7020895ACDF819502
:102B3000FACFA9DF81958093A8020895A4DFFBCF87
:102B4000815D990B21E001C0220F8A95EAF78091FF
:102B5000A402822B8093A40208958091A202816036
:102B60008093A20208958091A2028260F9CF8091A1
:102B7000A2028460F5CF4091A5028D3C59F480916A
:102B8000A60287FF0DC01092A602411559F41092BB
:102B9000A10208C08E3C81F48091A60218169CF315
:102BA000411581F08091A7029091A802892B09F02C
:102BB00056C01092A00208958F3C41F447FFF0CF19
:102BC0001092A5028091A6028115E0CF803D19F4F4
:102BD0001416B4F3E5CF9091A702893D29F4191694
:102BE000FCF61092A702DCCF8A3D19F497FFD8CFEC
:102BF000F8CF9091A8028B3D29F497FFD1CF109286
:102C0000A802CECF8C3D19F41916CCF3C9CF982F5A
:102C1000915D983078F4815D990B21E001C0220F1D
:102C20008A95EAF7822F80959091A4028923809358
:102C3000A402B6CF8D3D31F48091A2028E7F8093A5
:102C4000A202AECF8E3D21F48091A2028D7FF7CFFC
:102C50008F3D09F0A5CF8091A2028B7FF0CF089520
:102C600086D49C019091A5028091A602982B21F018
:102C700020939E0230939F029091A7028091A80218
:102C8000982B21F020939C0230939D0283EA92E0DE
:102C9000DBC1E3EAF2E086E011928A95E9F710924F
:102CA000A1021092A0021092A2020895FC0182815A
:102CB00081110EC0838181110BC08481811108C0F4
:102CC00091E08581811101C090E0892F8170089584
:102CD00081E0FCCFA6E0B0E0E0E7F6E10C94CC2286
:102CE00086E0E3EAF2E09E012F5F3F4FD9010190B9
:102CF0000D928A95E1F71092A5021092A602109209
:102D0000A7021092A8028B819C81892B022FF32E9F
:102D1000811581F080919E0290919F02B9D3AC0100
:102D20009091A1029115A1F18091110184171506CE
:102D300008F43BC08D819E81892B89F080919C0293
:102D400090919D02A5D3AC019091A002911509F438
:102D50005AC080910D018417150608F462C0602FD7
:102D60007F2D83EA92E0C2D2811104C083EA92E00F
:102D70009DDF811175DF86E0E02FFF2DA3EAB2E031
:102D800001900D928A95E1F72696E5E00C94E822F1
:102D9000209112018AE0289F900111242417350701
:102DA00048F69F5F9093A10202C09F3FD1F71B811D
:102DB000111551F027DE91E011160CF09FEF899F5D
:102DC000802D11248093A5021C81111551F01ADE6B
:102DD00091E011160CF09FEF899F802D11248093B4
:102DE000A6028091A502811509F4A4CF1091A60234
:102DF000111509F49FCFF8DD8093A502812FF4DD32
:102E00008093A60297CF20910E018AE0289F90011F
:102E100011242417350708F0A2CF9F5F9093A002DA
:102E200002C09F3FD1F71D81111551F02CDE91E0BA
:102E300011160CF09FEF899F802D11248093A7021B
:102E40008E81182F811551F01EDE91E011160CF0C5
:102E50009FEF899F802D11248093A8028091A70263
:102E6000811509F47CCF9091A802192F911509F4CE
:102E700076CFBADD8093A702812FB6DD8093A802BA
:102E80006ECF0F931F93CF93DF93C42FD22FFC01EC
:102E900085818115C9F04093AB0269D38093A90263
:102EA0009093AA028C2F805E883048F481E0C1FDA7
:102EB00084E0C0FD880FC2FD82950E945604DF9118
:102EC000CF911F910F9108951091AB02141333C04D
:102ED0008091A9029091AA02DBD2883C910558F515
:102EE000CD2FC05E1D17C1F0812F805E883048F461
:102EF00081E011FD84E010FD880F12FD82950E9493
:102F00005B04C83048F481E0D1FD84E0D0FD880F37
:102F1000D2FD82950E945604802F0E944F0481E0CA
:102F2000D1FD84E0D0FD880FD2FD8295C83038F6FF
:102F30000E945B04C4CF8C2F805E883008F0BFCF26
:102F400081E0C1FD84E0C0FD880FC2FD8295F0CF15
:102F50000F93FC01CB01E851FC47E730F10588F500
:102F6000EF57FC4D0C94B92206E221EE41EE6AE1E6
:102F70007CE787DF80E00F91089507E225EE45EEBC
:102F80006BE17CE7F6CF06E221EE40EE68E17CE7FC
:102F9000F0CF07E225EE44EE69E17CE7EACF06E2F6
:102FA00021EE42EE6CE17CE7E4CF07E225EE46EE4F
:102FB0006DE17CE7DECF08E221E045EE6EE17CE7E3
:102FC000D8CFFB01858181111092AB0281E0D3CF74
:102FD0008093B0029093B102089508950895EDD1C1
:102FE000982F81E0913009F080E00895E091B002DF
:102FF000F091B102309739F00190F081E02D3097D7
:1030000011F00995089580E00895E091B002F091E3
:10301000B102309731F00280F381E02D309709F052
:1030200009950895E091B002F091B102309759F0FE
:1030300024813581232B39F026E0DC012C93048098
:10304000F581E02D09950895E091B002F091B1026B
:10305000309759F026813781232B39F022E0DC01AB
:103060002C930680F781E02D09950895A3E0B0E048
:10307000ECE3F8E10C94CF222091AE023091AF0244
:1030800028173907B1F08093AE029093AF02E09118
:10309000B002F091B102309761F00084F185E02D2B
:1030A000309739F023E029838A839B83CE010196F0
:1030B00009952396E2E00C94EB22A3E0B0E0E3E66E
:1030C000F8E10C94CF222091AC023091AD02281788
:1030D0003907B1F08093AC029093AD02E091B00259
:1030E000F091B102309761F00084F185E02D3097C6
:1030F00039F024E029838A839B83CE0101960995C8
:103100002396E2E00C94EB22CF93DF93C09102016F
:10311000D091030164DF811521F08091C10287FD08
:1031200011C09E012E5F3F4F96E080E09150F90163
:1031300040812F5F3F4F41118F5F9111F7CFDF919A
:10314000CF91089520910001309101012E5F3F4FF2
:103150009EE1EBCFCF93C82F811102C080E02EC03B
:103160003EDF811521F08091C10287FD0FC0809163
:10317000020190910301FC013296089620812C17E0
:10318000F9F03196E817F907C9F7E8CF8C2F869543
:1031900086958695C03F10F7E0910001F0910101FE
:1031A000E80FF11D228130E0C77081E001C0880F77
:1031B000CA95EAF7282381E0232B81F2CF91089565
:1031C00081E0FCCF9C01FC01329680E09FEF4081C2
:1031D000461759F031969F3F19F4411101C0982FBD
:1031E0008F5F8630A1F79F3F09F40895290F311DA5
:1031F00097FD3A95F90162830895FC01329608968D
:103200002191261302C0DF011E92E817F907C1F7CA
:103210000895262F269526952695603F60F4820F07
:10322000911DFC01677021E001C0220F6A95EAF749
:103230008281822B82830895262F269526952695B6
:10324000603F68F4820F911DFC019DEF61FD97EFD7
:1032500060FF959562FD929582818923828308950E
:10326000CF93C82FBCDE6C2F811559F08091C1021D
:1032700087FF07C08091000190910101CADFCF91C3
:10328000089580910201909103019CDFF8CFCF93C4
:10329000C82FA5DE6C2F811559F08091C10287FFE0
:1032A00007C08091000190910101C6DFCF91089580
:1032B0008091020190910301A0DFF8CF90DE81158B
:1032C00071F08091C10287FF0AC0E0910001F09186
:1032D000010132968EE111928A95E9F70895E09105
:1032E0000201F0910301329686E0F5CFDC01FB018B
:1032F00011969C9111978181981322C012968C91FE
:103300001297811519F0928189131AC013968C9126
:103310001397811519F09381891312C015968C911A
:103320001597811519F0958189130AC014969C91FF
:10333000911521F081E02481291303C080E001C0B0
:1033400081E0817008950895FECF08958F5F809386
:1033500016016091130170911401809115019091F3
:103360001601F2CF83E080931601609113017091F2
:1033700014018091150190911601E6CFE7CF0895D1
:1033800081E0809316016091130170911401809186
:10339000150190911601D8CFF3CF089591E08111D6
:1033A00001C090E090931501609113017091140198
:1033B0008091150190911601C7CF80911501089554
:1033C0008093140160911301709114018091150193
:1033D00090911601B9CF8091140108958093130143
:1033E0006091130170911401809115019091160163
:1033F000ABCF80911301089508950895FECF0895ED
:1034000008950895F9CF08950F931F93CF93DF93F5
:10341000F7DF0E94FB0FF5DF02EB12E0C0E0D0E027
:103420008C2F0E94610FF80181938F0191E081112F
:1034300001C090E0D92BCF5FC33091F78D2FDF9182
:10344000CF911F910F910895E82FF0E0EE54FD4FBA
:10345000808190E021E030E002C0220F331F6A95A6
:10346000E2F72823392381E0232B09F480E0089533
:1034700041110DC0E82FF0E0EE54FD4F21E001C0F6
:10348000220F6A95EAF720958081282320830895EA
:10349000CF93DF93EC016BD08C1B9D0BDF91CF9111
:1034A000089585B7806885BF85B7806885BF089512
:1034B0001F921FB61F9211248F939F93AF93BF93B8
:1034C0008091B502811113C08091CF049091D004F6
:1034D000A091D104B091D2044196A11DB11D809359
:1034E000CF049093D004A093D104B093D204BF91A1
:1034F000AF919F918F911F901FBE1F901895809143
:10350000D704843031F10E944E031092B50288E155
:1035100090E020E40FB6F894A895809360000FBE69
:103520002093600083B7817F846083BF83B781600D
:1035300083BF7894889583B78E7F83BF0FB6F89446
:10354000A89580916000886180936000109260006F
:103550000FBE08950E9466060C94540382E084BD59
:1035600093E095BD9AEF97BD80936E0008952FB7B5
:10357000F8948091CF049091D004A091D104B0919F
:10358000D2042FBF08952FB7F8946091CF047091A3
:10359000D0048091D1049091D2042FBF08957894E3
:1035A0001F921FB61F9211248F939F93AF93BF93C7
:1035B0008091CF049091D004A091D104B091D20415
:1035C0000196A11DB11D8093CF049093D004A093C8
:1035D000D104B093D204BF91AF919F918F911F906E
:1035E0001FBE1F90189587E797E780930008909378
:1035F000010888E19AE00FB6F894A89580936000DE
:103600000FBE90936000FFCF88E19AE00FB6F89468
:10361000A895809360000FBE90936000FFCFEF925B
:10362000FF921F93CF93DF93182FEB011092BC00F2
:1036300084EA8093BC009BDF7C018091BC0087FF03
:1036400025C08091B900887F883029F08091B90029
:10365000887F803171F51093BB0084E88093BC00B3
:1036600086DF7C018091BC0087FF1DC02091B900DE
:10367000287F80E090E0283181F081E090E02034E4
:1036800009F480E091958195910907C0C70100DF99
:10369000C817D90790F68EEF9FEFDF91CF911F915A
:1036A000FF90EF900895C701F3DEC817D907D0F651
:1036B000F2CF8FEF9FEFF1CF1092B9008CE08093A3
:1036C000B80008950F931F93CF93DF93EB0180937E
:1036D000BB0084E88093BC004ADF8C018091BC0071
:1036E00087FF10C02091B900287F81E090E0283248
:1036F00009F480E0919581959109DF91CF911F9117
:103700000F910895CF3FDC0749F3C801C1DEC81708
:10371000D90720F78EEF9FEFF0CFA0E0B0E0E2E90D
:10372000FBE132C7982E862E772E6A0179011FDFC2
:103730005C0184E1E816F10410F18FEFE816FE0455
:1037400009F1C70164E170E0EDD6162F072F612F54
:10375000702F892D64DFEC01892BB1F4082D172D12
:10376000C00ED11E0C151D0511F02097B9F084E98B
:103770008093BC00CE01CDB7DEB7EDE021C711E0EC
:1037800000E0E5CF15E0FCCF8FEFE816FE04F9F27C
:10379000C5017EDEE816F906D0F6E0CFB701F801E4
:1037A00081918F018FDFEC01DDCFA0E0B0E0EAED89
:1037B000FBE1EAC6982E862E772E6A018901D7DEB4
:1037C0005C010431110500F10F3F100701F1C80140
:1037D00064E170E0A7D6EB01BE01892D20DF7C01FA
:1037E000892BB9F4C82DD72DCC0EDD1ECC15DD05E7
:1037F00019F0E114F104B1F084E98093BC00C70131
:10380000CDB7DEB7EDE0DCC6C1E0D0E0E5CFC5E086
:10381000FCCF0F3F100701F3C5013ADE0817190767
:10382000D8F6E0CFFE018491B8014CDF7C012196EF
:10383000DDCFA0E0B0E0EEE1FCE1A5C6982E862E3B
:10384000742E652E6901E80192DE5C0104311105D8
:1038500000F10F3F100709F1C80164E170E062D682
:10386000F62EE72E6F2D7E2D892DD9DE8C01892B2A
:10387000B9F0CF3FDC07B1F3C5010ADEC817D9079D
:1038800088F784E98093BC00C801CDB7DEB7EEE0CD
:1038900096C6FF24F394E12CE5CF85E0F82EFBCF0C
:1038A000BE01882D0FDF8C01E72CF62CCE0CDF1C1F
:1038B000EC14FD0431F30115110519F7BE01F701F0
:1038C00081917F01FFDE8C01F3CF9B01BA019091C2
:1038D000D7049430D9F48F708093E9009FEF8091E2
:1038E000E80085FD06C085ED8A95F1F7000091504E
:1038F000B1F78091E80085FF09C040E050E0C901C0
:10390000B6D18091E8008E778093E800089543E077
:1039100050E0BC0182E0D9CF46E050E0BC0182E03B
:10392000D4CF40E250E0BC0182E0CFCFCF93DF9311
:10393000EC0143DD48E050E0BE0181E0C6DF88E0F5
:10394000FE01A6EBB2E001900D928A95E1F7DF91BE
:10395000CF9108958091D604811107C016D366D304
:103960008091E20084608093E20008951092D60472
:10397000089506DD81E012CD6091D30481E06111EC
:1039800001C080E0EFCC9091D70481E0943009F041
:1039900080E06091D304F2CC42E061EC81E071D22E
:1039A00042E261EC82E06DD29091D70481E09430E4
:1039B00009F080E06091D304C9CC8091D9048930AA
:1039C00081F148F4823009F496C0833009F457C07D
:1039D000813041F008958A3009F480C08B3009F4B9
:1039E00068C008958091D804813A09F047C0809159
:1039F000E800877F8093E8008091DC049091DD04EB
:103A0000892B59F060E080E090E070E07DD18091FA
:103A1000E8008B778093E800089568E086EB92E0F9
:103A2000F4CF8091D804813249F58091DC049091E3
:103A3000DD04029718F58091E800877F8093E80005
:103A40008091E80082FF16C02091F3008091F2007F
:103A5000922F029731F48091F100813011F086307D
:103A600019F48091F100ACDC8091E8008B778093B1
:103A7000E8003BC28091D7048111E2CF0895809184
:103A8000D804813AD9F78091DC049091DD04892B28
:103A9000A9F78091E800877F8093E8008091E80093
:103AA00080FFFCCF8ADC8093F1008091E8008E7764
:103AB000DECF8091D804813209F78091DC049091A7
:103AC000DD04892BD9F68091E800877F8093E80098
:103AD0000CD28091DA0462DC0C9466068091D804E2
:103AE000813261F68091E800877F8093E800FDD104
:103AF0008091DB0473CC8091D804813A09F0BECF69
:103B00008091E800877F8093E8008091E80080FF43
:103B1000FCCF6FDCC8CF84B7877F84BF0FB6F89423
:103B2000A895809160008861809360001092600089
:103B30000FBE80E890E00FB6F894809361009093F8
:103B400061000FBE29CC21D271D2E2EEF0E080817B
:103B5000846080837894CDC487E191E039CA8091F4
:103B6000D704853029F48091D704853011F0F2CC48
:103B70000895C5DC49DC8115B1F38091D504811528
:103B800091F35FD00E946606EECF08959A014091AE
:103B9000DE045091DF0400C0492F50E0433051054E
:103BA000C9F070F441305105E9F14230510571F42A
:103BB0008BE390E04AE153E0F9014083518308959B
:103BC00041325105E9F04232510519F180E090E0AF
:103BD00040E0F2CF482F50E0813061F04230510593
:103BE00061F0E6E1F3E04115510581F7849190E041
:103BF000AF01E2CFEAEFF2E0F9CFE4EEF2E0F6CF88
:103C000061307105A0F011F789E090E045E453E0E0
:103C1000D3CF6130710580F0C9F686EB90E047E6BE
:103C200053E0CACF82E190E045E553E0C5CF89E09B
:103C300090E04CE253E0C0CF84E490E04DE154E0EA
:103C4000BBCF80E189BD82E189BD09B400FEFDCF13
:103C50008091D8008F7D8093D8008091E0008260B1
:103C60008093E0008091E00081FDFCCF0895AF9249
:103C7000BF92CF92DF92FF920F931F93CF93DF9368
:103C80006C01EB018A0150D1F82E811123C001157E
:103C9000110539F0F80180819181C81BD90BC80E3C
:103CA000D91EA12CB12C2097A9F08091E80085FDA8
:103CB00021C08091E8008E778093E80001151105FE
:103CC000A1F0F801808191818A0D9B1D80839183F1
:103CD00085E0F82E8F2DDF91CF911F910F91FF90EE
:103CE000DF90CF90BF90AF9008951ED18115E9F27B
:103CF000F82EF0CFF60181916F018093F1002197AA
:103D00008FEFA81AB80ACFCFFC012091DE043091C2
:103D1000DF042617370720F06115710569F09B0154
:103D200090E02115310571F491110CC08091E800EB
:103D300082FF38C080E008959091E8009E779093CC
:103D4000E800EDCF8091D7048115C1F18530C1F134
:103D50008091E80083FD30C08091E80082FDE6CFCD
:103D60008091E80080FFDDCF8091F3004091F20068
:103D7000582F2115310519F04830510558F091E0C0
:103D80004830510509F090E04091E8004E774093AB
:103D9000E800C7CF81918093F100215031094F5F36
:103DA0005F4FE7CF8091D704811541F0853041F016
:103DB0008091E80083FFBACF81E0089582E0089502
:103DC00083E00895FC012091DE043091DF04261782
:103DD000370720F06115710569F09B0190E021150E
:103DE000310571F491110CC08091E80082FF39C057
:103DF00080E008958091E8008E778093E800EDCF11
:103E00008091D7048115C9F18530C9F18091E8000E
:103E100083FD31C08091E80082FDE6CF8091E8000B
:103E200080FFDDCF8091F3004091F200582F2115E3
:103E3000310519F04830510558F091E048305105EE
:103E400009F090E08091E8008E778093E800C7CF7A
:103E500084918093F1003196215031094F5F5F4F7B
:103E6000E6CF8091D704811541F0853041F08091F3
:103E7000E80083FFB9CF81E0089582E0089583E0F0
:103E80000895982F973028F08F708093E90081E093
:103E900008959093E900242F762F50E0981731F081
:103EA0007091EC002091ED005091F00021FD02C0D6
:103EB0009F5FE8CF3091EB003E7F3093EB00309175
:103EC000ED003D7F3093ED003091EB003160309399
:103ED000EB007093EC002093ED005093F0002091E4
:103EE000EE0027FDE5CF80E008958091D80487FF9C
:103EF00013C08091E80082FF06C08091E8008B77B4
:103F00008093E80008958091D7048111F2CF08953D
:103F10008091D7048115D9F38091E80080FFF8CF14
:103F20008091E8008E77ECCF2091E4003091E5009D
:103F300095E6A9012091EC00822F817020FF06C038
:103F40008091E80080FF06C080E008952091E8009D
:103F500022FD1AC08091D704811589F0853089F03F
:103F60008091EB0085FD0FC02091E4003091E500C9
:103F700042175307F9F29150E1F684E0089582E088
:103F8000089583E0089581E008955FD066D0E0EE63
:103F9000F0E0808181608083E8ED80818F7780838D
:103FA00019BCA7EDB0E08C918E7F8C9380818F7EC1
:103FB00080831092D6040895CF93DF9346D04DD0DE
:103FC000C8EDD0E088818F77888388818068888376
:103FD00088818F7D888319BC1092D7041092D304F6
:103FE0001092D5041092D404E0EEF0E080818B7F33
:103FF000808388818160888342E060E080E041DFE7
:10400000E1EEF0E080818E7F8083E2EE808181604E
:104010008083808188608083E0EE80818E7F8083D2
:10402000888180618883DF91CF910895E8EDF0E089
:1040300080818F7E8083E7ED80818160808384E052
:1040400082BF81E08093D604B7CFE8EDF0E08081B5
:104050008E7F80831092E20008951092DA00109211
:10406000E10008951F920F920FB60F9211242F9323
:104070003F934F935F936F937F938F939F93AF93F0
:10408000BF93EF93FF938091E10082FF0AC080917C
:10409000E20082FF06C08091E1008B7F8093E10007
:1040A00027D28091DA0080FF18C08091D80080FF6D
:1040B00014C08091DA008E7F8093DA008091D9005D
:1040C00080FF8FC080E189BD82E189BD09B400FE17
:1040D000FDCF81E08093D7043DDC8091E10080FF3B
:1040E00018C08091E20080FF14C08091E2008E7FB2
:1040F0008093E2008091E20080618093E2008091F1
:10410000D80080628093D80019BC85E08093D704E2
:1041100033DC8091E10084FF28C08091E20084FFBD
:1041200024C080E189BD82E189BD09B400FEFDCFD4
:104130008091D8008F7D8093D8008091E1008F7EA0
:104140008093E1008091E2008F7E8093E200809175
:10415000E20081608093E2008091D304811509F42C
:1041600045C084E08093D7040EDC8091E10083FF9A
:1041700027C08091E20083FF23C08091E100877F08
:104180008093E10082E08093D7041092D304809161
:10419000E1008E7F8093E1008091E2008E7F80932A
:1041A000E2008091E20080618093E20042E060E002
:1041B00080E067DE8091F00088608093F000D9DBBA
:1041C000FF91EF91BF91AF919F918F917F916F91EF
:1041D0005F914F913F912F910F900FBE0F901F90C5
:1041E000189519BC1092D704C1DB77CF8091E300FA
:1041F00087FF02C083E0B6CF81E0B4CF1F920F9259
:104200000FB60F9211241F932F933F934F935F93F9
:104210006F937F938F939F93AF93BF93CF93DF93CE
:10422000EF93FF93E9EEF0E080811091EC008F7046
:1042300010FB112717F9182B1082C0EFD0E08881EE
:10424000877F888378941CD0E9EEF0E01082888123
:10425000886088831F701083FF91EF91DF91CF9169
:10426000BF91AF919F918F917F916F915F914F918E
:104270003F912F911F910F900FBE0F901F90189597
:10428000AAE2B0E0E5E4F1E289C188ED94E0FC0146
:1042900001962091F100208324E0803E9207B9F737
:1042A0008CDB8091E80083FF37C08091D804909127
:1042B000D9049A3088F5E92FF0E0E857FC4D59C150
:1042C000803889F0823841F58091DC048F70873026
:1042D00018F58093E9008091EB0085FB882780F931
:1042E0001092E90006C08091D504880F9091D40403
:1042F000892B9091E800977F9093E8008093F100DC
:104300001092F1008091E8008E7722C0811115C0D3
:104310008091DA04813001F18091E80083FF0AC0C6
:104320008091E800877F8093E8008091EB008062B5
:104330008093EB00AA96E3E04DC1823069F780914B
:10434000DA04811579F01092E9008091E800877F06
:104350008093E800CADDE0CF933009F080E08093DD
:10436000D504F1CF8091DC048F70282F21502630A6
:1043700098F68093E9002091EB0020FFE4CF933082
:1043800031F48091EB0080628093EB00DCCF909160
:10439000EB0090619093EB0021E001C0220F8A9521
:1043A000EAF72093EA001092EA008091EB0088601F
:1043B000EBCF8111B1CF8091DA048F77182F8091E4
:1043C000E3008078812B8093E3008091E800877F71
:1043D0008093E8008ADD8091E80080FFFCCF809127
:1043E000E30080688093E30083E0111101C082E064
:1043F0008093D70491CF8058823008F08DCF809180
:10440000DA049091DB048C3D23E0920789F583E088
:104410008A838AE289834FB7F894DE01139620E0FD
:104420003EE051E2E32FF0E050935700849120FFEB
:1044300003C082958F703F5F8F708A30B8F0895CBF
:104440008D931D922F5F243169F74FBF8091E80053
:10445000877F8093E8006AE270E0CE01019654DC29
:104460008091E8008B778093E80056CF805DE8CF9D
:104470006091DC047091DD04AE014F5F5F4F86DB1D
:10448000BC01892B09F448CF9091E800977F909365
:10449000E80089819A8196DCE3CF803809F03CCF2F
:1044A0008091E800877F8093E8008091D304809317
:1044B000F10028CF811130CF9091DA04923008F0CA
:1044C0002BCF8091E800877F8093E8009093D304FE
:1044D0000CDD8091D304811529F084E08093D7040A
:1044E0005BDA1ACF8091E30087FDF7CF81E0F6CF4A
:1044F0000895CF938091D704811591F08091E900C0
:10450000C091EC008F70C0FBCC27C7F9C82B10926C
:10451000E9008091E80083FDB3DECF70C093E9002D
:10452000CF910895AA1BBB1B51E107C0AA1FBB1F57
:10453000A617B70710F0A61BB70B881F991F5A952F
:10454000A9F780959095BC01CD01089597FB072EA2
:1045500016F4009406D077FD08D0E4DF07FC05D000
:104560003EF4909581959F4F0895709561957F4F8A
:104570000895EE0FFF1F0590F491E02D09942F92FE
:104580003F924F925F926F927F928F929F92AF92E3
:10459000BF92CF92DF92EF92FF920F931F93CF9330
:1045A000DF93CDB7DEB7CA1BDB0B0FB6F894DEBFC7
:1045B0000FBECDBF09942A88398848885F846E84ED
:1045C0007D848C849B84AA84B984C884DF80EE8037
:1045D000FD800C811B81AA81B981CE0FD11D0FB640
:1045E000F894DEBF0FBECDBFED010895FB01DC01E5
:1045F00004C08D910190801921F441505040C8F7BA
:10460000881B990B0895F999FECF92BD81BDF89A48
:10461000992780B50895A8E1B0E042E050E020C0BD
:10462000262FF999FECF92BD81BDF89A019700B46B
:10463000021639F01FBA20BD0FB6F894FA9AF99A0B
:104640000FBE08950396272FECDFEADF252FE9DF61
:10465000242FE7CF0196272FE4DFE2CFDC01CB0147
:10466000FC01F999FECF06C0F2BDE1BDF89A319682
:1046700000B40D9241505040B8F70895F894FFCF20
:104680009B049B04D204D20429054505C304C3043A
:104690004905BB05C805C8057514E4147D14471405
:1046A0004B1481144F14851491145B14DD145F14A2
:1046B000951463149914BE1467149D14C5146D14D5
:1046C000A314AB145314891457148D147114A71424
:1046D000B514CE14DB1441147914EB148415891528
:1046E0008B159015A015A015A015A015A015A01547
:1046F000A015A0159215961599159E15AD15B31513
:10470000B715C317C917B417BD17CF17D517DB17C0
:10471000602186218C2186218C21D921FB218C21AD
:044720004D225A22AA
:104724002C024C020021007F220003280850011EA5
:104734000A140100000100EB19961C911C8C1C87C3
:104744001CE200E900EA00B500B600B700CD008322
:1047540001CC008A01920194012102230224022542
:1047640002260227022A02B300B4006F0070009FE1
:1047740001CB019F02A002E200E900EA00B500B605
:1047840000B700CD008301CC008A0192019401217D
:1047940002230224022502260227022A02B300B4BD
:1047A400006F0070009F01CB019F02A002F4F5F698
:1047B400313332000810181810080000FF010001FE
:0C47C4000000FFFF0000010001FF0000EA
:00000001FF
